:020000040800F2
:1000000048070020350200085F210008C31F0008D0
:100010005D210008F9050008AB250008000000007C
:100020000000000000000000000000006321000844
:10003000FB050008000000006121000865210008A0
:100040004F0200084F0200084F0200084F0200084C
:100050004F0200084F0200084F0200084F0200083C
:100060004F0200084F0200084F0200084F0200082C
:100070004F0200084F0200084F0200084F0200081C
:100080004F0200084F0200084F0200084F0200080C
:100090004F0200084F0200084F0200084F020008FC
:1000A0004F0200084F0200084F0200084F020008EC
:1000B0004F0200084F0200084F0200084F020008DC
:1000C0004F0200084F0200084F0200084F020008CC
:1000D0004F0200084F0200084F0200084F020008BC
:1000E0004F0200084F0200084F0200084F020008AC
:1000F0004F0200084F0200084F0200084F0200089C
:100100004F02000800000000000000004F0200083D
:100110004F0200084F0200084F0200084F0200087B
:100120004F0200084F0200084F0200084F0200086B
:100130004F0200084F02000800000000000000000D
:100140004F0200084F0200084F02000800000000A4
:10015000000000000000000000000000000000009F
:100160004F0200084F0200084F0200084F0200082B
:100170004F0200084F0200084F0200084F0200081B
:100180004F0200084F0200080000000000000000BD
:100190004F02000800F002F800F03CF80AA090E8D6
:1001A000000C82448344AAF10107DA4501D100F032
:1001B00031F8AFF2090EBAE80F0013F0010F18BFC3
:1001C000FB1A43F0010318471C2700003C270000DE
:1001D000103A24BF78C878C1FAD8520724BF30C873
:1001E00030C144BF04680C60704700000023002445
:1001F00000250026103A28BF78C1FBD8520728BF37
:1002000030C148BF0B6070471FB502F049FB1FBDEE
:1002100010B510BD00F0CFF81146FFF7F5FF02F062
:10022000EDF900F0EDF803B4FFF7F2FF03BC00F0C6
:10023000F5F800000948804709480047FEE7FEE757
:10024000FEE7FEE7FEE7FEE7FEE7FEE7FEE7FEE786
:1002500004480549054A064B70470000E92100089B
:1002600095010008480100204807002048030020AD
:100270004803002053EA020C00F069802DE9F04B9E
:100280004FF00006002B1FBFB3FA83F503FA05F405
:1002900024FA05F65E4012BF1643B2FA82F502FA5E
:1002A00005F4C5F120051EBF22FA05FC44EA0C0442
:1002B000203556EA044C4FEA144418BF641C4FF032
:1002C00000084FF00009904271EB030C39D300296C
:1002D00019BFB1FA81F701FA07F6B0FA80F700FA10
:1002E00007F6C7F120071EBF20FA07FC46EA0C06F6
:1002F0002037B6FBF4FCA7EB0507103F07F01F0BF8
:10030000CBF120060CFA0BFB2CFA06F644BFB346E1
:100310000026202FA4BF5E464FF0000B5BEA060CC0
:1003200008BF4FF0010B19EB0B09ABFB027C48EB4C
:100330000608C01B06FB02CC0BFB03CC71EB0C01C7
:10034000C1E70B46024641464846BDE8F08B13B56F
:100350004FF000004FF00001AFF30080BDE81C40FB
:1003600070474FF0000200B5134694469646203978
:1003700022BFA0E80C50A0E80C50B1F12001BFF45E
:10038000F7AF090728BFA0E80C5048BF0CC05DF8C4
:1003900004EB890028BF40F8042B08BF704748BF12
:1003A00020F8022B11F0804F18BF00F8012B704786
:1003B000704770477047754600F02CF8AE46050050
:1003C0006946534620F00700854618B020B5FFF770
:1003D0003FFFBDE820404FF000064FF000074FF010
:1003E00000084FF0000B21F00701AC46ACE8C00953
:1003F000ACE8C009ACE8C009ACE8C0098D4670475C
:1004000010B50446AFF300802046BDE81040FFF76A
:100410000ABF000000487047E8000020014918208A
:10042000ABBEFEE7260002007047000070B5044630
:1004300000680022836813F00C0F54D0C3689B013E
:1004400005D5637E012B02D1237E012B22D06029AA
:100450000CD020688268520706D58268920703D4C0
:10046000826842F0100282600C290ED020688268F7
:10047000120706D58268920703D4826842F02002F0
:100480008260602915D06C2911D0042500F00EFF80
:10049000064624E00C21154B02E09A4215D2521C6C
:1004A0000568ED436D06F8D440220260D1E70C25C3
:1004B000ECE70825EAE700BF00F0F8FE801B0B28F8
:1004C0000DD920688068284209D0206C40F01000C7
:1004D0002064606C40F001006064012070BD206801
:1004E00080682842E8D1002070BD00000094090017
:1004F00070B504460068816801F0030101292AD122
:100500000168C90727D0816801F00D01012914D1C4
:10051000816841F00201816021680320086000F0D9
:10052000C5FE054613E000BF00F0C0FE401B0228D8
:100530000DD920688068C00709D0206C40F01000F9
:100540002064606C40F001006064012070BD206890
:100550008068C007E8D1002070BD000070B5044677
:100560000068816801F00301012902D10168C9070F
:1005700025D18168134A114212D1816841F00101ED
:10058000816000F093FE054614E000BF00F08EFE8F
:10059000401B02280ED920680068C043C00709D05C
:1005A000206C40F010002064606C40F0010060643A
:1005B000012070BD20680068C043C007E6D100205C
:1005C00070BD00003F00008000B587B0182168466C
:1005D000FFF7C7FE012000900190042002906946B9
:1005E000044800F097F8002801D072B6FEE707B083
:1005F00000BD000014000020FEE77047F0B50023A6
:1006000002684FF0A04C3E4C94B01F46624501D1A9
:1006100000940DE0A24202D1CDF800C008E0394DAF
:10062000394EAA4201D1009602E0B24214D100959F
:1006300090F83C50012D12D0012580F83C5095686F
:100640006D0753D4009DAD686D074FD4624501D04E
:10065000A24206D12D4A05E0012014B0F0BD0220CF
:10066000FBE72B4A0D6840F61F7425B3956890F898
:10067000306025F4604545EA46354E68354395605F
:100680000568AE6806F00306012E02D12D68ED075D
:1006900031D1009DAD6805F00305012D03D1009D0A
:1006A0002D68ED0727D10D6889680D439168A14336
:1006B0000D4395601FE0916821F4604191600168ED
:1006C0008D6805F00305012D02D10968C90712D113
:1006D0000099896801F00301012903D10099096893
:1006E000C90708D19168A143916004E0016C41F011
:1006F00020010164012380F83C701846ADE700003A
:10070000000100500004005000050050000300509C
:1007100000070050F0B594B00024009490F83C20FD
:100720002546012A19D0012780F83C7003689A6891
:1007300052077CD44A681F26052A11D2D3F830C04C
:1007400002EB4202520096402CEA060C0E689640DC
:100750004CEA060CC3F830C035E0022014B0F0BDFE
:100760000A2A0FD2D3F834C0521F02EB42025200C1
:1007700096402CEA060C0E6896404CEA060CC3F82C
:1007800034C020E00F2A0FD2D3F838C00A3A02EB67
:100790004202520096402CEA060C0E6896404CEA43
:1007A000060CC3F838C00EE0D3F83CC00F3A02EB99
:1007B0004202520096402CEA060C0E6896404CEA23
:1007C000060CC3F83CC00268936813F00C0F4FF09E
:1007D000070374D1D1F800E0BEF10A0F10D3966977
:1007E000AEF10A0E0EEB4E0C03FA0CFE26EA0E06D4
:1007F000D1F808E00EFA0CFE46EA0E0696610FE00C
:10080000D2F814C00EEB4E0603FA06FE2CEA0E0CCC
:10081000D1F808E00EFA06FE4CEA0E0CC2F814C03D
:1008200002684E69D2F80CC0CCF3C10C00E0FDE0C8
:100830004FEA4C0C06FA0CF6D1F810E0DFF848C28B
:10084000BEF1010F42D0BEF1020F4DD0BEF1030F39
:1008500058D0BEF1040F63D0166E91F800C006F0B8
:10086000F846B6EB8C6F03D1166E26F0004616667E
:100870000268566E91F800C006F0F846B6EB8C6F31
:1008800003D1566E26F0004656660268966E91F8C1
:1008900000C006F0F846B6EB8C6F03D1966E26F0DA
:1008A000004696660268D66E91F800C006F0F846DB
:1008B000B6EB8C6F03D1D66E26F00046D666026882
:1008C000966806F00306012E3AD136E0D2F860E0D1
:1008D0000EEA0C0E91F800C046EA8C664EEA060E4F
:1008E0004EF000461666EAE7D2F864E00EEA0C0E17
:1008F00091F800C046EA8C664EEA060E4EF00046BD
:100900005666DCE7D2F868E00EEA0C0E91F800C0FB
:1009100046EA8C664EEA060E4EF000469666CEE734
:10092000D2F86CE00EEA0C0E91F800C046EA8C6634
:100930004EEA060E4EF00046C0E71668F6077AD17A
:10094000CE68012E06D052F8B03F0E78B740BB43B8
:10095000136021E052F8B06F91F800C007FA0CF76D
:100960003E4316600A680A2A0BD30668B769093A3B
:1009700002EB420293409F438B6893401F43B76151
:100980000AE007687E69521C02EB420293409E43D4
:100990008B6893401E437E6103684FF0A0473B4E37
:1009A000BB4201D0B34201D1394A00E0394A09685B
:1009B000102904D0112907D012290AD03BE0D2F81F
:1009C00008C04FEA0C2C08E0D2F808C04FEACC1C53
:1009D00003E0D2F808C04FEA4C2CBCF1000F2ADB30
:1009E000BB420DD0B34201D100970CE02A4EDFF894
:1009F000ACC0B34202D1CDF800C004E0634501D1E0
:100A0000009600E000959E6806F00306012E02D1D4
:100A10001E68F6070AD1009E8EB1B66806F003067E
:100A2000012E0CD1009E3668F60708D0016C41F00B
:100A300020010164012480F83C5020468EE61029F4
:100A400008D011291AD01229F5D1916841F48001FA
:100A50009160F0E7BB42EED1916841F400019160F2
:100A60000F49104A0968B1FBF2F101EB810149001D
:100A700000E0491E00910029FBD1DCE7BB42DAD13E
:100A8000916841F08071E3E700F0FF8300010050BE
:100A90000003005000070050000400500005005003
:100AA0001000002040420F000068006C70470000FA
:100AB000F0B54FF0000695B0040037463546009675
:100AC00005D0206CC00648D4206C18B133E001205A
:100AD00015B0F0BD6564E564A56484F83C5020461B
:100AE00000F022F920688068C00024D42046FFF777
:100AF000FFFC0646206CC0061DD4E6B9206C20F42D
:100B0000885040F0020020642068816821F0405144
:100B100081602068816841F08051816079487A491C
:100B20000068B0FBF1F000EB8000400000E0401EE8
:100B300000900028FBD120688168C90002D5806838
:100B400080000AD5206C20F0020040F010002064E4
:100B5000606C40F0010060640126206CC00672D415
:100B6000002E70D12068816849076CD4216C21F473
:100B7000807141F0020121644FF0A04E634B70453B
:100B800001D0984201D1624A00E0624ADFF888C190
:100B90006249704501D100930EE0984202D1CDF830
:100BA00000E009E0884202D1CDF800C004E06045D1
:100BB00001D1009100E00095836803F00303012B4D
:100BC00002D10068C00710D1009840B1806800F0E1
:100BD0000300012803D100980068C00705D1906880
:100BE000636820F4403018439060D4E90220104339
:100BF000626B012A02D04FF4805300E00023627E32
:100C000043EA4233184394F820303843012B0AD189
:100C1000D2B1226C22F0020242F020022264626C05
:100C200042F001026264A26A012A37D023688B4233
:100C300001D063452DD14FF430714FF4E0778A42F3
:100C40000AD13A4627E053E0A28C354B03EB4242EF
:100C5000024342F48030E6E74FF480739A4201D1B8
:100C60000A4618E0BA4201D11A4614E0B2F58A5F8A
:100C700006D0B2F5845F06D0B2F5865F06D00AE0F2
:100C80004FF4707207E04FF4A07204E04FF4C072AA
:100C900001E022F480520243E06A104321688A682E
:100CA00012F00C0F0BD1CA6844F202039A43CA60D7
:100CB000217E94F83020890341EA420108432268EA
:100CC000D168184B19400143D16020690128206880
:100CD000016B21F00F0102D1E269521E1143016341
:100CE0006564206C20F0020040F00100206406E002
:100CF000206C20F0020040F01000206401263046F5
:100D0000E6E600001000002040420F000001005005
:100D10000003005000070050000500500004005080
:100D20000000FEFF07C0F0FF10B586B00446142196
:100D30006846FFF716FB2068B0F1A04F1AD10E48A5
:100D4000416941F080514161416901F08051059153
:100D5000416941F4003141614069694600F4003065
:100D60000590032000900190002002904FF09040E9
:100D700000F06EF906B010BD001002402DE9F047FA
:100D80000E4604464169414A00684FF000084FF0A2
:100D9000A043082905D0984201D0904203D13C4994
:100DA00002E0082514E03B498D68ED060CD0896807
:100DB00001F4404159B1206C40F02000206484F8D7
:100DC0003C800120BDE8F087C168C907F2E70C2527
:100DD000984201D0904202D1D3F8081302E02D4985
:100DE0000831096811F01F0F04D0984202D02A4937
:100DF000884201D1C76803E0904200D11946CF680C
:100E000000F054FA814614E0701C12D02EB100F0AC
:100E10004DFAA0EB0900B0420BD9206800682842C7
:100E200007D1206C40F00400206484F83C8003204B
:100E3000C8E7206800682842E6D0206C40F40070C3
:100E400020642068C16811F4406F1AD1B90418D425
:100E50000168090715D581684907216C0AD421F476
:100E600080712164216CC9040BD4216C41F0010113
:100E7000216406E041F020012164616C41F0010130
:100E80006164790400D4056000209BE700010050F4
:100E90000003005000070050000400502DE9F0410D
:100EA000044600688068400770D494F83C0001282C
:100EB0000CD0012084F83C002046FFF74FFB0300D4
:100EC0004FF0000605D084F83C6086E00220BDE8C3
:100ED000F081206C40F60161884340F4807020640A
:100EE00020684FF0A0413E4A3E4D884201D09042DA
:100EF00002D1D1F8087300E02F6817F01F0F3A4FA6
:100F000003D0884201D0B8420BD1D4F840C02CF4B1
:100F1000801CC4F840C0D0F80CC05FEA8C1C14D40C
:100F20001BE0D4F840C04CF4801CC4F840C0904290
:100F300002D1D1F80CC005E0DFF8ACC00CF10C0C0C
:100F4000DCF800C01CF0007F07D0D4F840C02CF4BF
:100F5000005C4CF4805CC4F840C0D4F840C05FEA48
:100F6000CC4C06D5D4F844C02CF0060CC4F844C0D0
:100F700000E0666484F83C601C26066020688842B5
:100F800001D0904203D1D1F8084301E024E02C685D
:100F900014F01F0F1BD0884201D0904202D1D1F82B
:100FA000084300E02C6804F01F04052C0FD0884291
:100FB00001D0904202D1D1F8082300E02A6802F063
:100FC0001F02092A03D0884201D0B84205D18168A6
:100FD00041F00401816000E00223184677E7000039
:100FE00000010050080700500004005010B50446EE
:100FF00090F83C00012808D0012084F83C006C21C6
:101000002046FFF713FA10B10BE0022010BD204676
:10101000FFF76EFA28B9216C21F4885141F00101E3
:101020002164002184F83C1010BD000070B5044616
:1010300000F03CF90546601C02D0044800780444E6
:1010400000F034F9401BA042FAD370BD0400002028
:101050002DE9F04FDFF82492002209F1040A01265D
:1010600003250AF1040B85B00F270BF1040EFCE0F9
:1010700006FA02F423407CD091F804C00CF0030C73
:10108000BCF1010F02D0BCF1020F26D1D0F808C08C
:10109000CDF800C04FEA420C05FA0CF8CDF810C0AC
:1010A000DDF800C02CEA080CCDF800C0D1F80C80A7
:1010B000DDF810C008FA0CF8DDF800C048EA0C08AA
:1010C000C0F80880D0F804C02CEA040C0C79C4F3F2
:1010D0000014944044EA0C0444600C79E443A407EF
:1010E0000ED0C4684FEA420805FA08FC24EA0C0452
:1010F000D1F808C00CFA08FC4CEA040CC0F80CC08B
:101100000C7904F00304022C15D1D40800EB8404FC
:101110000294246A4FEA427C4FEADC6807FA08FC32
:1011200024EA0C04D1F810C00CFA08FC4CEA040CB8
:10113000029CC4F820C004684FEA420805FA08FC83
:1011400024EA0C0491F804C00CF0030C0CFA08FC1F
:101150004CEA040CC0F800C04C6814F4403F08D0BE
:10116000474CD4F818C04CF0010CC4F818C0A4695E
:1011700000E079E004F001040094424C22F0030CFA
:1011800064440294A4684FEA827C4FEA1C7807FA10
:1011900008FC24EA0C04B0F1904F06D0DFF8E8C058
:1011A000604505D14FF0010C27E04FF0000C24E022
:1011B000DFF8D8C0604502D14FF0020C1DE0DFF827
:1011C000D0C0604502D14FF0030C16E0DFF8C4C078
:1011D000604502D14FF0040C0FE0DFF8BCC0604561
:1011E00002D14FF0050C08E0DFF8B0C0604502D135
:1011F0004FF0060C01E04FF0070C0CFA08FC4CEA2B
:10120000040C029CC4F808C0D9F80040CC46D1F8C0
:1012100004809C435FEAC83800D51C43CCF80040EA
:10122000DAF80040D446D1F804809C435FEA88385D
:1012300000D51C43CCF80040DBF80040DC46D1F878
:1012400004809C435FEAC82800D51C43CCF80040CA
:10125000DEF80040F446D1F804809C435FEA882819
:1012600000D51C43CCF80040521C0B6833FA02F442
:101270007FF4FEAE05B0BDE8F08F00000004014031
:10128000001002400000014000040048000800482F
:10129000000C0048001000480014004800180048E6
:1012A0000AB181617047816270470000014880681F
:1012B0007047000004000020024881680278114451
:1012C0008160704704000020074810B5016841F0B4
:1012D00010010160032000F05FF80F2000F006F815
:1012E00000F024F8002010BD0020024070B50D4D24
:1012F00004464FF47A712878B1FBF0F00A49096886
:10130000B1FBF0F000F088FD48B9102C07D20022A4
:101310002146501E00F020F800206C6070BD0120B6
:1013200070BD00000400002010000020094808B52E
:10133000816941F001018161816901F00101009140
:10134000C16941F08051C161C06900F080500090D6
:1013500008BD000000100240F0B40E4B1B680C46A4
:10136000C3F30223C3F10705042D00D90425191D79
:10137000072901D2002300E0DB1E012606FA05F151
:10138000491E214099409E40761E16403143F0BCD4
:1013900001F00CB90CED00E0064900F00702086806
:1013A0004FF6FF03184040EA0220034A104308604A
:1013B000704700000CED00E00000FA052DE9F84F41
:1013C0000446006800269F4DC0036ED5E869C00042
:1013D00008D4E86940F08050E861E869012600F02F
:1013E0008050009098480168C90512D40168804671
:1013F00041F480710160FFF759FF074605E000BF27
:10140000FFF754FFC01B642835D8D8F80000C0058A
:10141000F6D5286A10F4407053D0A18801F44071C9
:1014200081424ED0286A4FF4803191FAA1F2B2FA8B
:1014300082F29700854A4FF00108174420F440706B
:10144000C7F8008491FAA1F1B1FA81F102EB8101B0
:101450000023C1F800342862C00732D0FFF726FF0E
:10146000074641F2883A4FF0020907E0FFF71EFFF6
:10147000C11B514502D90320BDE8F88F99FAA9F1A3
:10148000B1FA81F141F040014846B8EB511F01D15A
:1014900029680CE090FAA0F1B1FA81F141F0400125
:1014A000B0EB511F02D1296A01E015E0696A99FA8F
:1014B000A9F0B0FA80F000F01F0008FA00F2114223
:1014C000D4D0286A616820F44070084328621EB1B5
:1014D000E86920F08050E8612078C00705D0286BCB
:1014E000A16820F00300084328632078800705D511
:1014F000286BE16820F440300843286320784007D7
:1015000005D5286B216920F4402008432863207802
:10151000800605D5286BE16920F010000843286398
:101520002068800305D56868616D20F48000084359
:1015300068602078400605D5286B216A20F02000DD
:10154000084328632068400305D5286B616A20F0B2
:101550004000084328632078000705D5286B61699F
:1015600020F44010084328632078C00605D5286B76
:10157000A16920F44000084328632088800505D530
:101580006868216B20F4000008436860207800063A
:1015900005D5E86AA16A20F4F8700843E86220885B
:1015A000C00505D5E86AE16A20F478500843E8628E
:1015B0002088C00405D5286B616B20F48070084337
:1015C00028632088800405D5286B216C20F40070E6
:1015D000084328632068C00205D5286BA16B20F062
:1015E0008070084328632068800205D5286BE16B72
:1015F00020F00070084328632068400205D5286B5E
:10160000616C20F48060084328632068000205D5DF
:10161000286BA16C20F40060084328632068C00197
:1016200005D5286BE16C20F400500843286320683E
:10163000800105D5286B216D20F400400843286304
:10164000002019E7001002400070004000004242F4
:101650002DE9F0470F46050069D04A4E306800F08A
:101660000700B84209D2306820F0070038433060E4
:10167000306800F00700B84259D12878424C800702
:1016800005D56068A96820F0F000084360602878FC
:10169000C0073DD06968012001290DD0022923D05F
:1016A0005FF0020393FAA3F2B2FA82F242F0200250
:1016B000520904D0226803E04FF40033F2E7626A73
:1016C00093FAA3F3B3FA83F303F01F0398400242A3
:1016D0002DD0606820F0030008436060FFF7E6FD4E
:1016E000804641F288390CE04FF00073DAE700BF22
:1016F000FFF7DCFDA0EB0801494502D90320BDE856
:10170000F0876068696800F00C00B0EB810FEFD1E2
:10171000306800F00700B8420BD9306820F00700AD
:1017200038433060306800F00700B84201D0012033
:10173000E5E72878400705D56068E96820F4E060AF
:10174000084360602878000706D56068296920F49E
:10175000605040EAC100606000F04EF86168F0221D
:1017600092FAA2F201F0F001B2FA82F2D140074AF5
:10177000515CC8400649086006480068FFF7B6FD9E
:101780000020BCE70020024000100240CA280008E8
:101790001000002008000020084809490068496836
:1017A0004FF4E06292FAA2F201F4E061B2FA82F23E
:1017B000D140044A515CC84070470000100000202E
:1017C00000100240DA280008084809490068496802
:1017D0004FF4605292FAA2F201F46051B2FA82F22E
:1017E000D140044A515CC8407047000010000020FE
:1017F00000100240DA280008144A10B55168144855
:1018000001F00C03042B1FD0082B1DD14FF47014D2
:1018100094FAA4F401F47013B4FA84F4E3400D4C88
:10182000D26AE45C0F2393FAA3F302F00F02B3FA37
:1018300083F3DA40074BC90310339A5C002319463F
:10184000FEF718FDA0FB040110BD000000100240CF
:1018500000127A00AA2800082DE9F84F04007DD074
:101860002078FA4DC0074FF0010637D0686877043A
:10187000C0F38100012819D06868C0F381000228F4
:1018800004D16868C0F3C13002280FD06068B0F599
:10189000803F24D010B1B0F5A02F2AD0286820F4C2
:1018A00080302860286820F480201BE097FAA7F099
:1018B000B0FA80F040F02000400901D0286800E034
:1018C000686A97FAA7F1B1FA81F101F01F0106FAEF
:1018D00001F108424ED060680028C0D04AE0286874
:1018E00040F480302860606820B3FFF7DFFC80465A
:1018F0000AE0286840F480202860F0E7FFF7D6FC73
:10190000A0EB0800642873D897FAA7F0B0FA80F02B
:1019100040F02000400901D0286800E0686A97FA8A
:10192000A7F1B1FA81F101F01F0106FA01F10842B5
:10193000E4D01FE0FFF7BAFC804605E0FFF7B6FCF5
:10194000A0EB08006428DED897FAA7F0B0FA80F080
:1019500040F02000400902D0286801E0B9E0686A40
:1019600097FAA7F1B1FA81F101F01F0106FA01F12E
:101970000842E3D12078DFF8D88280074FF0000AD0
:101980004FF002075DD568684FF0F80B10F00C0FB0
:1019900015D06868C0F38100022804D16868C0F3DC
:1019A000C13001280BD0E068A0B396FAA6F0B0FAD7
:1019B00080F048F82060FFF779FC814620E097FA34
:1019C000A7F0B0FA80F040F02000400901D028686C
:1019D00000E0686A97FAA7F1B1FA81F101F01F01FE
:1019E00006FA01F1084221D0E068012871D11DE01A
:1019F00056E100BFFFF75AFCA0EB09000228A2D86D
:101A000097FAA7F0B0FA80F040F02000400902D029
:101A1000286801E016E0686A97FAA7F1B1FA81F147
:101A200001F01F0106FA01F10842E3D028689BFA91
:101A3000ABF22169B2FA82F220F0F800914008433B
:101A4000286024E096FAA6F1B1FA81F148F821A0C5
:101A5000FFF72CFC814605E0FFF728FCA0EB09000E
:101A60000228CCD897FAA7F0B0FA80F040F0200016
:101A7000400901D0286800E0686A97FAA7F1B1FA36
:101A800081F101F01F0106FA01F10842E4D120784A
:101A900000076AD56069A0B396FAA6F0B0FA80F0A4
:101AA00008EB8000C0F88064FFF700FC814605E089
:101AB000FFF7FCFBA0EB09000228A0D897FAA7F0DB
:101AC000B0FA80F040F06000B6EB501F02D12868F9
:101AD0000CE09DE197FAA7F0B0FA80F040F06000CA
:101AE000B7EB501F01D1286A00E0686A97FAA7F1A6
:101AF000B1FA81F101F01F0106FA01F21042D7D0CC
:101B000033E0FFE796FAA6F0B0FA80F008EB800029
:101B1000C0F880A4FFF7CAFB814605E0FFF7C6FBCB
:101B2000A0EB090002289CD897FAA7F0B0FA80F041
:101B300040F06000B6EB501F01D128680BE097FA27
:101B4000A7F0B0FA80F040F06000B7EB501F01D171
:101B5000286A00E0686A97FAA7F1B1FA81F101F00A
:101B60001F0106FA01F21042D8D12078400774D53F
:101B7000E8694FF00009C00009D4E86940F08050DE
:101B8000E861E8694FF0010900F0805000903148A9
:101B90000168C90512D4016841F480710160FFF742
:101BA00085FB834606E000BFFFF780FBA0EB0B0040
:101BB000642875D827480068C005F5D5A0680128B5
:101BC0000AD008B1052811D0286A20F00100286247
:101BD000286A20F0040002E0286A40F00100286230
:101BE000A068C8B3FFF762FB83460DE0286A40F0A7
:101BF00004002862F0E700BFFFF758FBA0EB0B01E1
:101C000041F2883081424BD897FAA7F0B0FA80F0C1
:101C100040F04000B6EB501F01D128680BE097FA66
:101C2000A7F0B0FA80F040F04000B7EB501F01D1B0
:101C3000286A00E0686A97FAA7F1B1FA81F101F029
:101C40001F0106FA01F21042D6D035E00010024022
:101C5000000042420070004000E034E0FFF726FB45
:101C6000834607E0FFF722FBA0EB0B0141F288302F
:101C7000814215D897FAA7F0B0FA80F040F0400002
:101C8000B6EB501F01D128680CE097FAA7F0B0FA24
:101C900080F040F04000B7EB501F02D1286A01E00D
:101CA00089E0686A97FAA7F1B1FA81F101F01F01A2
:101CB00006FA01F21042D5D1B9F1000F03D0E8695C
:101CC00020F08050E861A06980B36968C1F38101A8
:101CD000022973D04FF080714F000228524609D07C
:101CE00091FAA1F0B0FA80F048F82020FFF7DEFA70
:101CF000044664E091FAA1F0B0FA80F08A46C14649
:101D000048F82020FFF7D2FA804605E0FFF7CEFA28
:101D1000A0EB080002284ED897FAA7F0B0FA80F09E
:101D200040F02000400902D0286801E072E0686AB3
:101D300097FAA7F1B1FA81F101F01F0106FA01F15A
:101D40000842E3D1E86A616A20F00F000843E862C4
:101D5000D4E907100843696821F4761108436860E4
:101D60009AFAAAF0B0FA80F049F82060FFF79EFADC
:101D7000044604E0FFF79AFA001B02281BD897FAE2
:101D8000A7F0B0FA80F040F02000400901D02868A8
:101D900000E0686A97FAA7F1B1FA81F101F01F013A
:101DA00006FA01F10842E5D034E000BFFFF77EFA01
:101DB000001B022803D90320BDE8F88F15E097FA2D
:101DC000A7F0B0FA80F040F02000400901D0286868
:101DD00000E0686A97FAA7F1B1FA81F101F01F01FA
:101DE00006FA01F10842E1D114E00128E4D0686864
:101DF000E96AE36900F4C0329A4209D1226A00F428
:101E00007010904204D101F00F00616A884201D045
:101E10000120D1E70020CFE710B5401EB0F1807F50
:101E200001D3012010BD4FF0E02460610F21601745
:101E300000F0BCFB0020A06107202061002010BD45
:101E400010B5040002D0A06F10B107E0012010BD52
:101E5000002084F87400204600F026F82420A067B3
:101E60002068016821F001010160204600F056FA67
:101E70000128ECD0606A10B1204600F0BDF920685E
:101E8000416821F4904141602068816821F02A0175
:101E900081602068016841F0010101602046BDE8D1
:101EA000104000F00DBA000010B586B004461421B1
:101EB0006846FEF756FA1249206888421ED111483A
:101EC000816941F480418161816901F4804105911A
:101ED000416941F4002141614069694600F40020F4
:101EE00005903020009002200190002002900320F5
:101EF0000390072004900448FFF7AAF806B010BD2D
:101F00000038014000100240000800482DE9F84365
:101F10000446806F1F4616460D4620284FD1CDB18E
:101F2000C6B194F87400012849D0012084F87400E7
:101F30004FF00008C4F880802120A067FFF7B6F9B1
:101F4000A4F850608146A4F85260A068B0F5805FA4
:101F500003D004E00120BDE8F883206928B12E46B3
:101F60005FF0000584F8748010E00026FAE7802115
:101F7000204600F0B7FAB8B9C6B116F8010B2168CF
:101F80000885B4F85200401EA4F85200B4F852007C
:101F90004B464FF0000200970028E8D14FF0400177
:101FA000204600F09FFA30B10320D4E735F8020B49
:101FB000C0F30800E3E72020A0670020CBE7022061
:101FC000C9E7FEE710B58AB00024009401941821F7
:101FD00003A80294FEF7C5F912484FF0A041C0E9EA
:101FE0000014012184600161417680F82040C0E93D
:101FF0000A14C460C16180F8304004214161047654
:102000004463FEF755FD08B172B6FEE76946054820
:102010000094FEF7F3FA002801D072B6FEE70AB08A
:1020200010BD0000140000202DE9F04786B01421F7
:102030006846FEF796F93748416941F480014161ED
:10204000416901F480010591416941F40031416128
:10205000416901F400310591416941F40021416178
:10206000416901F400210591416941F48011416108
:10207000416901F480110591416941F48021416178
:1020800040694FF4004400F480204FF090470590E1
:10209000002221463846FFF703F9DFF87C804FF431
:1020A000E056002231464046FFF7FAF8DFF86C9020
:1020B000002204214846FFF7F3F8DFF864A000226D
:1020C000F8215046FFF7ECF8009401240025CDE9F3
:1020D0000145694638460394FEF7BAFF0096CDE9FC
:1020E0000145694640460394FEF7B2FF04208DE89F
:1020F0003100694648460394FEF7AAFFF8208DE8B0
:102100003100694650460394FEF7A2FF06B0BDE8D1
:10211000F08700000010024000080048000C004852
:10212000000400480C4810B50A4901604FF41651EC
:102130004160002181600C22C160C0E9041281610C
:10214000C16101624162FFF77BFE002801D072B6D7
:10215000FEE710BD0038014064000020FEE7FEE706
:1021600070477047FFF7A8B830B5A5B0282116A86A
:10217000FEF7F7F8142120A8FEF7F3F85821684677
:10218000FEF7EFF801210804CDE916100225CDE98C
:102190001C5019914FF4E0100024CDE91E0416A83C
:1021A000FFF75AFB08B172B6FEE70F20CDE9200514
:1021B0004FF48060CDE92240022120A82494FFF74B
:1021C00047FA08B172B6FEE7812000904FF48070A4
:1021D0000A9002946846FFF7F1F8002801D072B621
:1021E000FEE725B030BD00000248016841F47001EF
:1021F0000160704788ED00E090F82410C90706D010
:1022000001684A68836A22F400321A434A6090F8EF
:102210002410890706D501684A68C36A22F480320F
:102220001A434A6090F82410490706D501684A68A5
:10223000036B22F480221A434A6090F824100907A5
:1022400006D501684A68436B22F400421A434A608B
:1022500090F82410C90606D501688A68836B22F4B9
:1022600080521A438A6090F82410890606D50168C6
:102270008A68C36B22F400521A438A6090F82410D3
:10228000490611D501684A68036C22F480121A438A
:102290004A60016CB1F5801F06D101684A68436C41
:1022A00022F4C0021A434A6090F82410090606D5A9
:1022B00001684A68806C22F4002202434A60704739
:1022C000F8B500260446C0F88060FEF7EFFF05462B
:1022D000206800686FF07E47000708D52B46002273
:1022E0004FF400112046009700F0FCF860B9206818
:1022F000006840070AD52B4600224FF48001204693
:10230000009700F0EFF808B10320F8BD2020A06787
:10231000E067266684F874600020F8BD70B5044656
:1023200080682169E26908436169002511432268D8
:1023300008431168634B19400143116020684168EC
:10234000E26821F4405111434160216AA0690143D0
:102350002068826822F430620A4382605A4A206808
:102360005A4990420CD1086B10F0030006D00128A6
:102370005FD002285FD0032845D158E0012143E017
:10238000534A90420DD1086B10F440304DD0B0F557
:10239000803F4ED0B0F5003F4DD0B0F5403F32D138
:1023A00045E04C4A90420DD1086B10F440203CD0DF
:1023B000B0F5802F3DD0B0F5002F3CD0B0F5402FC8
:1023C00021D134E0444A90420DD1086B10F4401002
:1023D0002BD0B0F5801F2CD0B0F5001F2BD0B0F55E
:1023E000401F10D123E03D4A90420CD1086B10F4FD
:1023F00040001AD0B0F5800F1BD0B0F5000F1AD0F6
:10240000B0F5400F13D01021E3694FF40040344A77
:102410004FF6EF7683422ED109294AD2DFE801F048
:102420000D1013491549494918000021ECE7022114
:10243000EAE70421E8E70821E6E7FFF7ADF906E05F
:10244000FFF7C2F903E0104602E0FFF7D5F988B3C1
:102450004100606801EB5001B1FBF0F081B2A1F1E5
:102460001000B04225D84FF6F07201EA0200C1F325
:10247000420108431FE009291BD2DFE801F00508EB
:102480000B1A0D1A1A1A1000FFF786F906E0FFF76B
:102490009BF903E0104602E0FFF7AEF950B1616826
:1024A00000EB5100B0FBF1F080B2A0F11001B1429D
:1024B00001D9012501E02168C86000206066A0669E
:1024C000284670BDF369FFEF00380140001002405C
:1024D0000044004000480040004C004000500040D4
:1024E00000127A002DE9F0479A4617460E46044638
:1024F0004FF000094FF02008089D4AE0681C48D0C2
:10250000FEF7D4FEA0EB0A00A8422AD84DB32068FB
:10251000016849073DD5C069C043000539D4216829
:102520004FF400600862206850E8001F21F4D07169
:1025300040E80012002AF6D12068083050E8001F59
:1025400021F0010140E80012002AF5D1C4F878809A
:10255000C4F87C80C4F8808084F874900320BDE8BF
:10256000F087216851E8000F20F4D07041E80002A4
:10257000002AF6D12068083050E8001F21F0010140
:1025800040E80012002AF5D1C4F87880C4F87C80B5
:10259000E2E72068C06936EA000004D00020B842B3
:1025A000ACD00020DBE70120F9E7FEE70907090EC0
:1025B000002804DB00F1E02080F80014704700F0F0
:1025C0000F0000F1E02080F8141D704710B504469C
:1025D000FDF7FAFF0848FEF761FC4FF47A710648F0
:1025E000FEF7CCFB0448FEF75FFA2080BDE8104000
:1025F0000148FEF7FBBC000014000020FEF764FE5B
:10260000FFF7B2FDFFF710FDFFF7DCFCFFF78AFDD7
:10261000054C0548FFF7DAFF208800F007F8642032
:10262000FEF704FDF5E700000000002010B54FF4B0
:10263000A172474C904208D86423102245A1494812
:10264000FFF764FC214680207AE0A0F2431191421A
:1026500008D86423102244A14248FFF757FC2146C2
:1026600040206DE0A0F28621914208D86423102218
:1026700041A13C48FFF74AFC2146202060E0A0F23F
:10268000C931914208D8642310223FA13548FFF791
:102690003DFC2146102053E0A0F20C51914208D29B
:1026A000642310223CA12F48FFF730FC214608206C
:1026B00046E0A0F24E61914208D8642310223AA16C
:1026C0002848FFF723FC3C49042039E0A0F291712F
:1026D0003A4C914209D86423102239A12148FFF7CE
:1026E00015FC21464FF480502AE0A0F6D401914217
:1026F00009D86423102236A11A48FFF707FC2146A7
:102700004FF400601CE0A0F61721914209D2642327
:10271000102233A11348FFF7F9FB21464FF48060E4
:102720000EE0A0F65930B0F5D37F0DD86423112206
:102730002FA10C48FFF7EAFB4FF090414FF4004007
:10274000BDE8104000F0A0B8BDE8104000F05AB855
:10275000000400485475726E206F6E20506F7274C2
:1027600020310A00640000205475726E206F6E20C4
:10277000506F727420320A005475726E206F6E2092
:10278000506F727420330A005475726E206F6E2081
:10279000506F727420340A005475726E206F6E2070
:1027A000506F727420350A005475726E206F6E205F
:1027B000506F727420360A00000C00480008004870
:1027C0005475726E206F6E20506F727420370A003D
:1027D0005475726E206F6E20506F727420380A002C
:1027E0005475726E206F6E20506F727420390A001B
:1027F0005475726E206F6E20506F72742031300AE3
:102800000000000010B51D4C002280212046FEF77C
:1028100047FD002240212046FEF742FD00222021F4
:102820002046FEF73DFD002210212046FEF738FD30
:10283000002208212046FEF733FD00220421104823
:10284000FEF72EFD0F4C00224FF480512046FEF77C
:1028500027FD00224FF400612046FEF721FD0022F3
:102860004FF480612046FEF71BFDBDE810400022BA
:102870004FF400414FF09040FEF712BD00040048B5
:10288000000C00480008004870B50D460446FFF7EC
:10289000B9FF21462846BDE870400122FEF700BD81
:1028A0004FF04070E1EE100A70470203040506077E
:1028B00008090A0B0C0D0E0F101001020304050687
:1028C0000708090A0B0C0D0E0F1000000000000095
:1028D00000000102030406070809000000000102CD
:1028E0000304000004290008000000201400000078
:1028F000D001000818290008140000203407000047
:10290000EC010008000000000100000010000000C1
:082910000000000000127A0033
:040000050800019559
:00000001FF
